{
  "contractName": "demo",
  "abi": [
    {
      "inputs": [
        {
          "internalType": "uint256",
          "name": "_num",
          "type": "uint256"
        }
      ],
      "name": "setvalue",
      "outputs": [],
      "stateMutability": "nonpayable",
      "type": "function"
    },
    {
      "inputs": [],
      "name": "getvalue",
      "outputs": [
        {
          "internalType": "uint256",
          "name": "",
          "type": "uint256"
        }
      ],
      "stateMutability": "view",
      "type": "function",
      "constant": true
    },
    {
      "inputs": [],
      "name": "sendEatherContract",
      "outputs": [],
      "stateMutability": "payable",
      "type": "function",
      "payable": true
    },
    {
      "inputs": [],
      "name": "ContractBalance",
      "outputs": [
        {
          "internalType": "uint256",
          "name": "",
          "type": "uint256"
        }
      ],
      "stateMutability": "view",
      "type": "function",
      "constant": true
    },
    {
      "inputs": [
        {
          "internalType": "address",
          "name": "_user",
          "type": "address"
        }
      ],
      "name": "sendEatheruser",
      "outputs": [],
      "stateMutability": "payable",
      "type": "function",
      "payable": true
    },
    {
      "inputs": [
        {
          "internalType": "address",
          "name": "_add",
          "type": "address"
        }
      ],
      "name": "accountbalance",
      "outputs": [
        {
          "internalType": "uint256",
          "name": "",
          "type": "uint256"
        }
      ],
      "stateMutability": "view",
      "type": "function",
      "constant": true
    }
  ],
  "bytecode": "0x608060405234801561001057600080fd5b50610317806100206000396000f3fe6080604052600436106100555760003560e01c80630b4745ec1461005a5780630b56fecb146100835780633b6680591461009f578063517d9bce146100ca57806369bd01c4146101075780639f61ae6114610132575b600080fd5b34801561006657600080fd5b50610081600480360381019061007c91906101ff565b61013c565b005b61009d6004803603810190610098919061028a565b610146565b005b3480156100ab57600080fd5b506100b4610190565b6040516100c191906102c6565b60405180910390f35b3480156100d657600080fd5b506100f160048036038101906100ec919061028a565b610198565b6040516100fe91906102c6565b60405180910390f35b34801561011357600080fd5b5061011c6101b9565b60405161012991906102c6565b60405180910390f35b61013a6101c2565b005b8060008190555050565b8073ffffffffffffffffffffffffffffffffffffffff166108fc349081150290604051600060405180830381858888f1935050505015801561018c573d6000803e3d6000fd5b5050565b600047905090565b60008173ffffffffffffffffffffffffffffffffffffffff16319050919050565b60008054905090565b565b600080fd5b6000819050919050565b6101dc816101c9565b81146101e757600080fd5b50565b6000813590506101f9816101d3565b92915050565b600060208284031215610215576102146101c4565b5b6000610223848285016101ea565b91505092915050565b600073ffffffffffffffffffffffffffffffffffffffff82169050919050565b60006102578261022c565b9050919050565b6102678161024c565b811461027257600080fd5b50565b6000813590506102848161025e565b92915050565b6000602082840312156102a05761029f6101c4565b5b60006102ae84828501610275565b91505092915050565b6102c0816101c9565b82525050565b60006020820190506102db60008301846102b7565b9291505056fea26469706673582212202a4a6270517f55a27c3f81cfac6afe4fe74bec6d05e0123c7cb3f0eef596dda864736f6c63430008110033",
  "immutableReferences": {},
  "source": "// SPDX-License-Identifier: GPL-3.0\npragma solidity ^0.8.17;\n\ncontract demo{\n    uint number;\n    function setvalue(uint _num) public {\n        number = _num;\n    }\n    function getvalue()public view returns(uint){\n        return number;\n    }\n    function sendEatherContract() public payable {\n        \n    }\n    function ContractBalance() public view returns(uint) {\n        return address(this).balance;\n    }\n    function sendEatheruser(address _user)public payable{\n        payable(_user).transfer(msg.value);\n    }\n    function accountbalance(address _add)public view returns(uint){\n        return (_add).balance;\n    }\n}",
  "sourcePath": "/home/hp/Documents/block-chain/solidity/Truffle/eather.js_/contracts/demo.sol",
  "compiler": {
    "name": "solc",
    "version": "0.8.17+commit.8df45f5f.Emscripten.clang"
  },
  "schemaVersion": "3.4.11",
  "updatedAt": "2023-01-04T10:20:26.782Z",
  "networkType": "ethereum",
  "devdoc": {
    "kind": "dev",
    "methods": {},
    "version": 1
  },
  "userdoc": {
    "kind": "user",
    "methods": {},
    "version": 1
  }
}